{
  "_format": "hh-sol-artifact-1",
  "contractName": "EvidenceRegistry",
  "sourceName": "contracts/EvidenceRegistry.sol",
  "abi": [
    {
      "inputs": [
        {
          "internalType": "address",
          "name": "_trustedAnchor",
          "type": "address"
        }
      ],
      "stateMutability": "nonpayable",
      "type": "constructor"
    },
    {
      "inputs": [
        {
          "internalType": "bytes32",
          "name": "hash",
          "type": "bytes32"
        }
      ],
      "name": "EvidenceAlreadyExists",
      "type": "error"
    },
    {
      "inputs": [
        {
          "internalType": "bytes32",
          "name": "hash",
          "type": "bytes32"
        }
      ],
      "name": "EvidenceNotFound",
      "type": "error"
    },
    {
      "inputs": [],
      "name": "InvalidMerkleProof",
      "type": "error"
    },
    {
      "inputs": [],
      "name": "Unauthorized",
      "type": "error"
    },
    {
      "anonymous": false,
      "inputs": [
        {
          "indexed": true,
          "internalType": "bytes32",
          "name": "hash",
          "type": "bytes32"
        },
        {
          "indexed": false,
          "internalType": "string",
          "name": "polkadotTxHash",
          "type": "string"
        },
        {
          "indexed": false,
          "internalType": "uint256",
          "name": "timestamp",
          "type": "uint256"
        }
      ],
      "name": "CrossChainVerified",
      "type": "event"
    },
    {
      "anonymous": false,
      "inputs": [
        {
          "indexed": true,
          "internalType": "bytes32",
          "name": "hash",
          "type": "bytes32"
        },
        {
          "indexed": true,
          "internalType": "address",
          "name": "owner",
          "type": "address"
        },
        {
          "indexed": false,
          "internalType": "string",
          "name": "ipfsCID",
          "type": "string"
        },
        {
          "indexed": false,
          "internalType": "uint256",
          "name": "timestamp",
          "type": "uint256"
        }
      ],
      "name": "EvidenceRegistered",
      "type": "event"
    },
    {
      "anonymous": false,
      "inputs": [
        {
          "indexed": true,
          "internalType": "bytes32",
          "name": "root",
          "type": "bytes32"
        },
        {
          "indexed": false,
          "internalType": "string",
          "name": "polkadotTxHash",
          "type": "string"
        },
        {
          "indexed": false,
          "internalType": "uint256",
          "name": "timestamp",
          "type": "uint256"
        }
      ],
      "name": "MerkleRootCommitted",
      "type": "event"
    },
    {
      "inputs": [
        {
          "internalType": "bytes32",
          "name": "root",
          "type": "bytes32"
        },
        {
          "internalType": "string",
          "name": "polkadotTxHash",
          "type": "string"
        }
      ],
      "name": "commitMerkleRoot",
      "outputs": [],
      "stateMutability": "nonpayable",
      "type": "function"
    },
    {
      "inputs": [
        {
          "internalType": "bytes32",
          "name": "",
          "type": "bytes32"
        }
      ],
      "name": "crossChainProofs",
      "outputs": [
        {
          "internalType": "string",
          "name": "",
          "type": "string"
        }
      ],
      "stateMutability": "view",
      "type": "function"
    },
    {
      "inputs": [
        {
          "internalType": "bytes32",
          "name": "hash",
          "type": "bytes32"
        }
      ],
      "name": "getEvidenceByHash",
      "outputs": [
        {
          "internalType": "address",
          "name": "owner",
          "type": "address"
        },
        {
          "internalType": "uint256",
          "name": "timestamp",
          "type": "uint256"
        },
        {
          "internalType": "string",
          "name": "ipfsCID",
          "type": "string"
        }
      ],
      "stateMutability": "view",
      "type": "function"
    },
    {
      "inputs": [
        {
          "internalType": "address",
          "name": "wallet",
          "type": "address"
        },
        {
          "internalType": "uint256",
          "name": "offset",
          "type": "uint256"
        },
        {
          "internalType": "uint256",
          "name": "limit",
          "type": "uint256"
        }
      ],
      "name": "getUserEvidence",
      "outputs": [
        {
          "internalType": "bytes32[]",
          "name": "",
          "type": "bytes32[]"
        }
      ],
      "stateMutability": "view",
      "type": "function"
    },
    {
      "inputs": [
        {
          "internalType": "bytes32",
          "name": "",
          "type": "bytes32"
        }
      ],
      "name": "merkleRoots",
      "outputs": [
        {
          "internalType": "string",
          "name": "",
          "type": "string"
        }
      ],
      "stateMutability": "view",
      "type": "function"
    },
    {
      "inputs": [
        {
          "internalType": "bytes32",
          "name": "hash",
          "type": "bytes32"
        },
        {
          "internalType": "string",
          "name": "ipfsCID",
          "type": "string"
        }
      ],
      "name": "registerEvidence",
      "outputs": [],
      "stateMutability": "nonpayable",
      "type": "function"
    },
    {
      "inputs": [],
      "name": "trustedAnchor",
      "outputs": [
        {
          "internalType": "address",
          "name": "",
          "type": "address"
        }
      ],
      "stateMutability": "view",
      "type": "function"
    },
    {
      "inputs": [
        {
          "internalType": "bytes32",
          "name": "hash",
          "type": "bytes32"
        }
      ],
      "name": "verifyEvidence",
      "outputs": [
        {
          "internalType": "bool",
          "name": "exists",
          "type": "bool"
        },
        {
          "internalType": "uint256",
          "name": "timestamp",
          "type": "uint256"
        },
        {
          "internalType": "address",
          "name": "owner",
          "type": "address"
        },
        {
          "internalType": "string",
          "name": "ipfsCID",
          "type": "string"
        },
        {
          "internalType": "string",
          "name": "polkadotProof",
          "type": "string"
        }
      ],
      "stateMutability": "view",
      "type": "function"
    },
    {
      "inputs": [
        {
          "internalType": "bytes32",
          "name": "hash",
          "type": "bytes32"
        },
        {
          "internalType": "bytes32[]",
          "name": "proof",
          "type": "bytes32[]"
        },
        {
          "internalType": "bytes32",
          "name": "root",
          "type": "bytes32"
        }
      ],
      "name": "verifyEvidenceWithMerkle",
      "outputs": [],
      "stateMutability": "nonpayable",
      "type": "function"
    },
    {
      "inputs": [
        {
          "internalType": "bytes32",
          "name": "hash",
          "type": "bytes32"
        },
        {
          "internalType": "string",
          "name": "polkadotTxHash",
          "type": "string"
        }
      ],
      "name": "verifyFromPolkadot",
      "outputs": [],
      "stateMutability": "nonpayable",
      "type": "function"
    }
  ],
  "bytecode": "0x60a060405234801561001057600080fd5b5060405161126138038061126183398101604081905261002f91610040565b6001600160a01b0316608052610070565b60006020828403121561005257600080fd5b81516001600160a01b038116811461006957600080fd5b9392505050565b6080516111c16100a060003960008181610130015281816104ba0152818161065a0152610ae601526111c16000f3fe608060405234801561001057600080fd5b506004361061009e5760003560e01c80639c41cf8c116100665780639c41cf8c1461012b5780639d3d9ee11461016a578063ba642e611461018a578063c5db0504146101ac578063fe5a5377146101bf57600080fd5b8063055f3263146100a35780631f7fc96c146100cc578063352dfc05146100e157806381d40f1f146100f45780639136d41e14610107575b600080fd5b6100b66100b1366004610c47565b6101d2565b6040516100c39190610c88565b60405180910390f35b6100df6100da366004610ccc565b6102e2565b005b6100df6100ef366004610d51565b6104af565b6100df610102366004610d51565b61064f565b61011a610115366004610dcd565b6106f2565b6040516100c3959493929190610e2c565b6101527f000000000000000000000000000000000000000000000000000000000000000081565b6040516001600160a01b0390911681526020016100c3565b61017d610178366004610dcd565b61091e565b6040516100c39190610e79565b61019d610198366004610dcd565b6109b8565b6040516100c393929190610e8c565b6100df6101ba366004610d51565b610adb565b61017d6101cd366004610dcd565b610ba7565b6001600160a01b038316600090815260016020526040902080546060919080851061020f57505060408051600081526020810190915290506102db565b600061021b8587610ee8565b9050818111156102285750805b60006102348783610efb565b905060008167ffffffffffffffff81111561025157610251610ebc565b60405190808252806020026020018201604052801561027a578160200160208202803683370190505b50905060005b828110156102d35785610293828b610ee8565b815481106102a3576102a3610f0e565b90600052602060002001548282815181106102c0576102c0610f0e565b6020908102919091010152600101610280565b509450505050505b9392505050565b600081815260026020526040812080546102fb90610f24565b80601f016020809104026020016040519081016040528092919081815260200182805461032790610f24565b80156103745780601f1061034957610100808354040283529160200191610374565b820191906000526020600020905b81548152906001019060200180831161035757829003601f168201915b5050505050905060008151116103c95760405162461bcd60e51b815260206004820152601560248201527413595c9adb1948149bdbdd081b9bdd08199bdd5b99605a1b60448201526064015b60405180910390fd5b60008590506000610410868680806020026020016040519081016040528093929190818152602001838360200280828437600092019190915250889250869150610bc09050565b9050806104305760405163582f497d60e11b815260040160405180910390fd5b6000878152600360205260409020805461044990610f24565b90506000036104a657600087815260036020526040902061046a8482610faf565b50867f1b3740b4ccf8bfc4d3b6870ebcc4af39a3f6b27522cf5eab8f60d9da16347743844260405161049d92919061106f565b60405180910390a25b50505050505050565b336001600160a01b037f000000000000000000000000000000000000000000000000000000000000000016146104f7576040516282b42960e81b815260040160405180910390fd5b60008381526020819052604090206003015460ff161561052d5760405163cb7acfcd60e01b8152600481018490526024016103c0565b6040518060800160405280336001600160a01b0316815260200142815260200183838080601f0160208091040260200160405190810160405280939291908181526020018383808284376000920182905250938552505060016020938401819052878352828452604092839020855181546001600160a01b0319166001600160a01b0390911617815593850151908401555082015160028201906105d19082610faf565b50606091909101516003909101805460ff19169115159190911790553360008181526001602081815260408084208054938401815584529220018590555184907f049d5c67fccacc7da19535a2fdcc1770d2657ff2a64d5a95963fa33f7675cbd49061064290869086904290611091565b60405180910390a3505050565b336001600160a01b037f00000000000000000000000000000000000000000000000000000000000000001614610697576040516282b42960e81b815260040160405180910390fd5b60008381526002602052604090206106b08284836110ca565b50827f0d83764da4e5408c832119b779979553ad29be20989b448ea9b5f124c54d59508383426040516106e593929190611091565b60405180910390a2505050565b600081815260208181526040808320815160808101835281546001600160a01b031681526001820154938101939093526002810180548594859460609485948794919284019161074190610f24565b80601f016020809104026020016040519081016040528092919081815260200182805461076d90610f24565b80156107ba5780601f1061078f576101008083540402835291602001916107ba565b820191906000526020600020905b81548152906001019060200180831161079d57829003601f168201915b50505091835250506003919091015460ff16151560209091015260608101519091501580156108015750600087815260036020526040902080546107fd90610f24565b1590505b156108335750506040805160208082018352600080835283519182019093528281529195508594508493509150610915565b80606001518061085b57506000878152600360205260408120805461085790610f24565b9050115b816020015182600001518360400151600360008c815260200190815260200160002080805461088990610f24565b80601f01602080910402602001604051908101604052809291908181526020018280546108b590610f24565b80156109025780601f106108d757610100808354040283529160200191610902565b820191906000526020600020905b8154815290600101906020018083116108e557829003601f168201915b5050505050905095509550955095509550505b91939590929450565b6003602052600090815260409020805461093790610f24565b80601f016020809104026020016040519081016040528092919081815260200182805461096390610f24565b80156109b05780601f10610985576101008083540402835291602001916109b0565b820191906000526020600020905b81548152906001019060200180831161099357829003601f168201915b505050505081565b600081815260208181526040808320815160808101835281546001600160a01b0316815260018201549381019390935260028101805485946060948694919391929084019190610a0790610f24565b80601f0160208091040260200160405190810160405280929190818152602001828054610a3390610f24565b8015610a805780601f10610a5557610100808354040283529160200191610a80565b820191906000526020600020905b815481529060010190602001808311610a6357829003601f168201915b50505091835250506003919091015460ff1615156020909101526060810151909150610ac25760405163141bd4a960e31b8152600481018690526024016103c0565b8051602082015160409092015190969195509350915050565b336001600160a01b037f00000000000000000000000000000000000000000000000000000000000000001614610b23576040516282b42960e81b815260040160405180910390fd5b60008381526020819052604090206003015460ff1615610b595760405163cb7acfcd60e01b8152600481018490526024016103c0565b6000838152600360205260409020610b728284836110ca565b50827f1b3740b4ccf8bfc4d3b6870ebcc4af39a3f6b27522cf5eab8f60d9da163477438383426040516106e593929190611091565b6002602052600090815260409020805461093790610f24565b600082610bcd8584610bd6565b14949350505050565b600081815b8451811015610c1157610c0782868381518110610bfa57610bfa610f0e565b6020026020010151610c1b565b9150600101610bdb565b5090505b92915050565b6000818310610c375760008281526020849052604090206102db565b5060009182526020526040902090565b600080600060608486031215610c5c57600080fd5b83356001600160a01b0381168114610c7357600080fd5b95602085013595506040909401359392505050565b6020808252825182820181905260009190848201906040850190845b81811015610cc057835183529284019291840191600101610ca4565b50909695505050505050565b60008060008060608587031215610ce257600080fd5b84359350602085013567ffffffffffffffff80821115610d0157600080fd5b818701915087601f830112610d1557600080fd5b813581811115610d2457600080fd5b8860208260051b8501011115610d3957600080fd5b95986020929092019750949560400135945092505050565b600080600060408486031215610d6657600080fd5b83359250602084013567ffffffffffffffff80821115610d8557600080fd5b818601915086601f830112610d9957600080fd5b813581811115610da857600080fd5b876020828501011115610dba57600080fd5b6020830194508093505050509250925092565b600060208284031215610ddf57600080fd5b5035919050565b6000815180845260005b81811015610e0c57602081850181015186830182015201610df0565b506000602082860101526020601f19601f83011685010191505092915050565b851515815284602082015260018060a01b038416604082015260a060608201526000610e5b60a0830185610de6565b8281036080840152610e6d8185610de6565b98975050505050505050565b6020815260006102db6020830184610de6565b60018060a01b0384168152826020820152606060408201526000610eb36060830184610de6565b95945050505050565b634e487b7160e01b600052604160045260246000fd5b634e487b7160e01b600052601160045260246000fd5b80820180821115610c1557610c15610ed2565b81810381811115610c1557610c15610ed2565b634e487b7160e01b600052603260045260246000fd5b600181811c90821680610f3857607f821691505b602082108103610f5857634e487b7160e01b600052602260045260246000fd5b50919050565b601f821115610faa576000816000526020600020601f850160051c81016020861015610f875750805b601f850160051c820191505b81811015610fa657828155600101610f93565b5050505b505050565b815167ffffffffffffffff811115610fc957610fc9610ebc565b610fdd81610fd78454610f24565b84610f5e565b602080601f8311600181146110125760008415610ffa5750858301515b600019600386901b1c1916600185901b178555610fa6565b600085815260208120601f198616915b8281101561104157888601518255948401946001909101908401611022565b508582101561105f5787850151600019600388901b60f8161c191681555b5050505050600190811b01905550565b6040815260006110826040830185610de6565b90508260208301529392505050565b604081528260408201528284606083013760006060848301015260006060601f19601f8601168301019050826020830152949350505050565b67ffffffffffffffff8311156110e2576110e2610ebc565b6110f6836110f08354610f24565b83610f5e565b6000601f84116001811461112a57600085156111125750838201355b600019600387901b1c1916600186901b178355611184565b600083815260209020601f19861690835b8281101561115b578685013582556020948501946001909201910161113b565b50868210156111785760001960f88860031b161c19848701351681555b505060018560011b0183555b505050505056fea26469706673582212207988fbba677e976f636c5be1858c03f1cc07ef5101c5498b7a54bef17f2e203b64736f6c63430008180033",
  "linkReferences": {},
  "deployedLinkReferences": {}
}